{
  "contractName": "AssetRegistryStorage",
  "abi": [
    {
      "constant": true,
      "inputs": [
        {
          "name": "",
          "type": "uint256"
        }
      ],
      "name": "_isOffered",
      "outputs": [
        {
          "name": "",
          "type": "bool"
        }
      ],
      "payable": false,
      "stateMutability": "view",
      "type": "function"
    },
    {
      "constant": true,
      "inputs": [
        {
          "name": "",
          "type": "uint256"
        }
      ],
      "name": "_isOfferedTill",
      "outputs": [
        {
          "name": "",
          "type": "uint256"
        }
      ],
      "payable": false,
      "stateMutability": "view",
      "type": "function"
    },
    {
      "constant": true,
      "inputs": [
        {
          "name": "",
          "type": "uint256"
        }
      ],
      "name": "_minimalOfferValue",
      "outputs": [
        {
          "name": "",
          "type": "uint256"
        }
      ],
      "payable": false,
      "stateMutability": "view",
      "type": "function"
    }
  ],
  "bytecode": "0x6060604052341561000f57600080fd5b6101818061001e6000396000f300606060405260043610610057576000357c0100000000000000000000000000000000000000000000000000000000900463ffffffff16806338a8795a1461005c578063a1c36e3614610097578063e0677fd1146100ce575b600080fd5b341561006757600080fd5b61007d6004808035906020019091905050610105565b604051808215151515815260200191505060405180910390f35b34156100a257600080fd5b6100b86004808035906020019091905050610125565b6040518082815260200191505060405180910390f35b34156100d957600080fd5b6100ef600480803590602001909190505061013d565b6040518082815260200191505060405180910390f35b600a6020528060005260406000206000915054906101000a900460ff1681565b600b6020528060005260406000206000915090505481565b600c60205280600052604060002060009150905054815600a165627a7a72305820b146aeb1e1f68d81a92940cee099e57163439829c5243b3f084f66a1f17e462d0029",
  "source": "pragma solidity ^0.4.18;\r\n\r\ncontract AssetRegistryStorage {\r\n\r\n  string internal _name;\r\n  string internal _symbol;\r\n  string internal _description;\r\n  \r\n  address internal _contractOwner;\r\n  /**\r\n   * Stores the total count of assets managed by this registry\r\n   */\r\n  uint256 internal _count;\r\n\r\n  /**\r\n   * Stores an array of assets owned by a given account\r\n   */\r\n  mapping(address => uint256[]) internal _assetsOf;\r\n\r\n  /**\r\n   * Stores the current holder of an asset\r\n   */\r\n  mapping(uint256 => address) internal _holderOf;\r\n\r\n  /**\r\n   * Stores the index of an asset in the `_assetsOf` array of its holder\r\n   */\r\n  mapping(uint256 => uint256) internal _indexOfAsset;\r\n\r\n  /**\r\n   * Stores the data associated with an asset\r\n   */\r\n  mapping(uint256 => string) internal _assetData;\r\n\r\n  /**\r\n   * For a given account, for a given opperator, store whether that operator is\r\n   * allowed to transfer and modify assets on behalf of them.\r\n   */\r\n  mapping(address => mapping(address => bool)) internal _operators;\r\n\r\n\r\n  //4u added:\r\n  // TODO: isOfferedTill --> end of offer timestamp\r\n  mapping(uint256 => bool) public _isOffered;\r\n  // assetId => datetime\r\n  mapping(uint256 => uint) public _isOfferedTill;\r\n  // assetId => minimalOffer\r\n  mapping(uint256 => uint) public _minimalOfferValue;\r\n  \r\n    //----------------------------------------------\r\n  // commodityIdx => (OwnerId => CostsPerDay)\r\n  mapping(uint256 => mapping(address => uint)) _storageCostsPerDay;\r\n  // commodityIdx => shrinkPercent\r\n  mapping(uint => uint)  _shrinkage;\r\n  // assetID => datetime\r\n  mapping(uint256 => uint) _last_modify;\r\n  // assetID => costsTill_last_modify\r\n  mapping(uint256 => uint) _storageCostsSoFar;\r\n\r\n  uint constant HOURSEC  =  60 * 60;\r\n  uint constant DAYSEC =  24 * HOURSEC;\r\n\r\n  /**\r\n   * Simple reentrancy lock\r\n   */\r\n  bool internal _reentrancy;\r\n}\r\n",
  "sourcePath": "C:\\Users\\4u\\axgro\\axgro1\\axgro-prototype-walter\\contracts\\AssetRegistryStorage.sol",
  "compiler": {
    "name": "solc",
    "version": "0.4.18+commit.9cf6e910.Emscripten.clang"
  },
  "schemaVersion": "1.0.1",
  "updatedAt": "2018-04-02T21:25:28.545Z"
}