{
  "contractName": "AxStandardAssetRegistry",
  "abi": [
    {
      "constant": true,
      "inputs": [],
      "name": "name",
      "outputs": [
        {
          "name": "",
          "type": "string"
        }
      ],
      "payable": false,
      "stateMutability": "view",
      "type": "function"
    },
    {
      "constant": true,
      "inputs": [],
      "name": "totalSupply",
      "outputs": [
        {
          "name": "",
          "type": "uint256"
        }
      ],
      "payable": false,
      "stateMutability": "view",
      "type": "function"
    },
    {
      "constant": true,
      "inputs": [
        {
          "name": "holder",
          "type": "address"
        }
      ],
      "name": "assetsOf",
      "outputs": [
        {
          "name": "",
          "type": "uint256[]"
        }
      ],
      "payable": false,
      "stateMutability": "view",
      "type": "function"
    },
    {
      "constant": true,
      "inputs": [
        {
          "name": "assetId",
          "type": "uint256"
        }
      ],
      "name": "safeHolderOf",
      "outputs": [
        {
          "name": "",
          "type": "address"
        }
      ],
      "payable": false,
      "stateMutability": "view",
      "type": "function"
    },
    {
      "constant": true,
      "inputs": [
        {
          "name": "",
          "type": "uint256"
        }
      ],
      "name": "_isOffered",
      "outputs": [
        {
          "name": "",
          "type": "bool"
        }
      ],
      "payable": false,
      "stateMutability": "view",
      "type": "function"
    },
    {
      "constant": false,
      "inputs": [
        {
          "name": "newCustomer",
          "type": "address"
        },
        {
          "name": "commodityIdx",
          "type": "uint256"
        },
        {
          "name": "costPerDay",
          "type": "uint256"
        }
      ],
      "name": "newStoreContract",
      "outputs": [
        {
          "name": "",
          "type": "uint256"
        }
      ],
      "payable": false,
      "stateMutability": "nonpayable",
      "type": "function"
    },
    {
      "constant": false,
      "inputs": [
        {
          "name": "commodityIdx",
          "type": "uint256"
        }
      ],
      "name": "getCommodityAmount",
      "outputs": [
        {
          "name": "amount",
          "type": "uint256"
        },
        {
          "name": "assetId",
          "type": "uint256"
        }
      ],
      "payable": false,
      "stateMutability": "nonpayable",
      "type": "function"
    },
    {
      "constant": false,
      "inputs": [
        {
          "name": "owner",
          "type": "address"
        },
        {
          "name": "commodityIdx",
          "type": "uint256"
        },
        {
          "name": "store_amount",
          "type": "uint256"
        },
        {
          "name": "store_date",
          "type": "uint256"
        }
      ],
      "name": "storeCommodity",
      "outputs": [
        {
          "name": "",
          "type": "uint256"
        }
      ],
      "payable": false,
      "stateMutability": "nonpayable",
      "type": "function"
    },
    {
      "constant": true,
      "inputs": [
        {
          "name": "assetId",
          "type": "uint256"
        }
      ],
      "name": "exists",
      "outputs": [
        {
          "name": "",
          "type": "bool"
        }
      ],
      "payable": false,
      "stateMutability": "view",
      "type": "function"
    },
    {
      "constant": true,
      "inputs": [
        {
          "name": "operator",
          "type": "address"
        },
        {
          "name": "assetHolder",
          "type": "address"
        }
      ],
      "name": "isOperatorAuthorizedFor",
      "outputs": [
        {
          "name": "",
          "type": "bool"
        }
      ],
      "payable": false,
      "stateMutability": "view",
      "type": "function"
    },
    {
      "constant": true,
      "inputs": [],
      "name": "description",
      "outputs": [
        {
          "name": "",
          "type": "string"
        }
      ],
      "payable": false,
      "stateMutability": "view",
      "type": "function"
    },
    {
      "constant": false,
      "inputs": [
        {
          "name": "assetId",
          "type": "uint256"
        }
      ],
      "name": "offer",
      "outputs": [],
      "payable": false,
      "stateMutability": "nonpayable",
      "type": "function"
    },
    {
      "constant": false,
      "inputs": [
        {
          "name": "commodityIdx",
          "type": "uint256"
        },
        {
          "name": "shrinkagePercent",
          "type": "uint256"
        }
      ],
      "name": "setShrinkage",
      "outputs": [],
      "payable": false,
      "stateMutability": "nonpayable",
      "type": "function"
    },
    {
      "constant": true,
      "inputs": [],
      "name": "symbol",
      "outputs": [
        {
          "name": "",
          "type": "string"
        }
      ],
      "payable": false,
      "stateMutability": "view",
      "type": "function"
    },
    {
      "constant": true,
      "inputs": [
        {
          "name": "",
          "type": "uint256"
        }
      ],
      "name": "_isOfferedTill",
      "outputs": [
        {
          "name": "",
          "type": "uint256"
        }
      ],
      "payable": false,
      "stateMutability": "view",
      "type": "function"
    },
    {
      "constant": false,
      "inputs": [
        {
          "name": "buyer",
          "type": "address"
        },
        {
          "name": "assetId",
          "type": "uint256"
        },
        {
          "name": "amount",
          "type": "uint256"
        }
      ],
      "name": "buy",
      "outputs": [],
      "payable": false,
      "stateMutability": "nonpayable",
      "type": "function"
    },
    {
      "constant": false,
      "inputs": [
        {
          "name": "to",
          "type": "address"
        },
        {
          "name": "assetId",
          "type": "uint256"
        }
      ],
      "name": "transfer",
      "outputs": [],
      "payable": false,
      "stateMutability": "nonpayable",
      "type": "function"
    },
    {
      "constant": true,
      "inputs": [
        {
          "name": "assetId",
          "type": "uint256"
        }
      ],
      "name": "assetData",
      "outputs": [
        {
          "name": "",
          "type": "string"
        }
      ],
      "payable": false,
      "stateMutability": "view",
      "type": "function"
    },
    {
      "constant": false,
      "inputs": [
        {
          "name": "operator",
          "type": "address"
        },
        {
          "name": "authorized",
          "type": "bool"
        }
      ],
      "name": "authorizeOperator",
      "outputs": [],
      "payable": false,
      "stateMutability": "nonpayable",
      "type": "function"
    },
    {
      "constant": true,
      "inputs": [
        {
          "name": "assetId",
          "type": "uint256"
        }
      ],
      "name": "safeAssetData",
      "outputs": [
        {
          "name": "",
          "type": "string"
        }
      ],
      "payable": false,
      "stateMutability": "view",
      "type": "function"
    },
    {
      "constant": false,
      "inputs": [
        {
          "name": "to",
          "type": "address"
        },
        {
          "name": "assetId",
          "type": "uint256"
        },
        {
          "name": "userData",
          "type": "bytes"
        }
      ],
      "name": "transfer",
      "outputs": [],
      "payable": false,
      "stateMutability": "nonpayable",
      "type": "function"
    },
    {
      "constant": true,
      "inputs": [
        {
          "name": "holder",
          "type": "address"
        }
      ],
      "name": "assetCount",
      "outputs": [
        {
          "name": "",
          "type": "uint256"
        }
      ],
      "payable": false,
      "stateMutability": "view",
      "type": "function"
    },
    {
      "constant": true,
      "inputs": [
        {
          "name": "holder",
          "type": "address"
        },
        {
          "name": "index",
          "type": "uint256"
        }
      ],
      "name": "assetByIndex",
      "outputs": [
        {
          "name": "",
          "type": "uint256"
        }
      ],
      "payable": false,
      "stateMutability": "view",
      "type": "function"
    },
    {
      "constant": false,
      "inputs": [
        {
          "name": "assetId",
          "type": "uint256"
        },
        {
          "name": "beneficiary",
          "type": "address"
        },
        {
          "name": "data",
          "type": "string"
        }
      ],
      "name": "generate",
      "outputs": [],
      "payable": false,
      "stateMutability": "nonpayable",
      "type": "function"
    },
    {
      "constant": false,
      "inputs": [
        {
          "name": "newCustomer",
          "type": "address"
        },
        {
          "name": "commodityIdx",
          "type": "uint256"
        },
        {
          "name": "costPerDay",
          "type": "uint256"
        }
      ],
      "name": "safeNewStoreContract",
      "outputs": [
        {
          "name": "",
          "type": "uint256"
        }
      ],
      "payable": false,
      "stateMutability": "nonpayable",
      "type": "function"
    },
    {
      "constant": true,
      "inputs": [
        {
          "name": "assetId",
          "type": "uint256"
        }
      ],
      "name": "holderOf",
      "outputs": [
        {
          "name": "",
          "type": "address"
        }
      ],
      "payable": false,
      "stateMutability": "view",
      "type": "function"
    },
    {
      "constant": false,
      "inputs": [
        {
          "name": "to",
          "type": "address"
        },
        {
          "name": "assetId",
          "type": "uint256"
        },
        {
          "name": "userData",
          "type": "bytes"
        },
        {
          "name": "operatorData",
          "type": "bytes"
        }
      ],
      "name": "transfer",
      "outputs": [],
      "payable": false,
      "stateMutability": "nonpayable",
      "type": "function"
    },
    {
      "inputs": [],
      "payable": false,
      "stateMutability": "nonpayable",
      "type": "constructor"
    },
    {
      "anonymous": false,
      "inputs": [
        {
          "indexed": false,
          "name": "newOwner",
          "type": "address"
        },
        {
          "indexed": false,
          "name": "commodityIdx",
          "type": "uint256"
        },
        {
          "indexed": false,
          "name": "amount",
          "type": "uint256"
        },
        {
          "indexed": false,
          "name": "newAssetId",
          "type": "uint256"
        }
      ],
      "name": "Aggregate",
      "type": "event"
    },
    {
      "anonymous": false,
      "inputs": [
        {
          "indexed": false,
          "name": "newCustomer",
          "type": "address"
        },
        {
          "indexed": false,
          "name": "commodityIdx",
          "type": "uint256"
        },
        {
          "indexed": false,
          "name": "costPerDay",
          "type": "uint256"
        }
      ],
      "name": "NewStoreContract",
      "type": "event"
    },
    {
      "anonymous": false,
      "inputs": [
        {
          "indexed": false,
          "name": "owner",
          "type": "address"
        },
        {
          "indexed": false,
          "name": "commodityIdx",
          "type": "uint256"
        },
        {
          "indexed": false,
          "name": "store_amount",
          "type": "uint256"
        },
        {
          "indexed": false,
          "name": "store_date",
          "type": "uint256"
        },
        {
          "indexed": false,
          "name": "assetId",
          "type": "uint256"
        }
      ],
      "name": "StoreCommodity",
      "type": "event"
    },
    {
      "anonymous": false,
      "inputs": [
        {
          "indexed": false,
          "name": "commodityIdx",
          "type": "uint256"
        },
        {
          "indexed": false,
          "name": "shrinkagePercent",
          "type": "uint256"
        }
      ],
      "name": "SetShrinkage",
      "type": "event"
    },
    {
      "anonymous": false,
      "inputs": [
        {
          "indexed": true,
          "name": "from",
          "type": "address"
        },
        {
          "indexed": true,
          "name": "to",
          "type": "address"
        },
        {
          "indexed": true,
          "name": "assetId",
          "type": "uint256"
        },
        {
          "indexed": false,
          "name": "operator",
          "type": "address"
        },
        {
          "indexed": false,
          "name": "userData",
          "type": "bytes"
        },
        {
          "indexed": false,
          "name": "operatorData",
          "type": "bytes"
        }
      ],
      "name": "Transfer",
      "type": "event"
    },
    {
      "anonymous": false,
      "inputs": [
        {
          "indexed": true,
          "name": "assetId",
          "type": "uint256"
        },
        {
          "indexed": true,
          "name": "holder",
          "type": "address"
        },
        {
          "indexed": true,
          "name": "operator",
          "type": "address"
        },
        {
          "indexed": false,
          "name": "data",
          "type": "string"
        }
      ],
      "name": "Update",
      "type": "event"
    },
    {
      "anonymous": false,
      "inputs": [
        {
          "indexed": true,
          "name": "operator",
          "type": "address"
        },
        {
          "indexed": true,
          "name": "holder",
          "type": "address"
        },
        {
          "indexed": false,
          "name": "authorized",
          "type": "bool"
        }
      ],
      "name": "AuthorizeOperator",
      "type": "event"
    }
  ],
  "bytecode": "0x60606040527394405c3223089a942b7597db96dc60fca17b0e3a601060016101000a81548173ffffffffffffffffffffffffffffffffffffffff021916908373ffffffffffffffffffffffffffffffffffffffff160217905550341561006457600080fd5b33600360006101000a81548173ffffffffffffffffffffffffffffffffffffffff021916908373ffffffffffffffffffffffffffffffffffffffff160217905550613622806100b46000396000f30060606040526004361061015f576000357c0100000000000000000000000000000000000000000000000000000000900463ffffffff16806306fdde031461016457806318160ddd146101f25780632c62fa101461021b57806333683ec6146102a957806338a8795a1461030c5780633c17f5bc1461034757806340ed5e60146103a6578063490cfccd146103e45780634f558e791461044c57806355ef2913146104875780637284e416146104f7578063761610fc1461058557806391f325e3146105a857806395d89b41146105d4578063a1c36e3614610662578063a59ac6dd14610699578063a9059cbb146106e4578063ac823a7e14610726578063b0994d4a146107c2578063b2d96b8114610806578063be45fd62146108a2578063bffa925814610927578063d2953f8414610974578063d944534a146109ca578063d96a4ca014610a4f578063dbacc23714610aae578063e9b07bbf14610b11575b600080fd5b341561016f57600080fd5b610177610bd9565b6040518080602001828103825283818151815260200191508051906020019080838360005b838110156101b757808201518184015260208101905061019c565b50505050905090810190601f1680156101e45780820380516001836020036101000a031916815260200191505b509250505060405180910390f35b34156101fd57600080fd5b610205610c81565b6040518082815260200191505060405180910390f35b341561022657600080fd5b610252600480803573ffffffffffffffffffffffffffffffffffffffff16906020019091905050610c8b565b6040518080602001828103825283818151815260200191508051906020019060200280838360005b8381101561029557808201518184015260208101905061027a565b505050509050019250505060405180910390f35b34156102b457600080fd5b6102ca6004808035906020019091905050610d28565b604051808273ffffffffffffffffffffffffffffffffffffffff1673ffffffffffffffffffffffffffffffffffffffff16815260200191505060405180910390f35b341561031757600080fd5b61032d6004808035906020019091905050610d90565b604051808215151515815260200191505060405180910390f35b341561035257600080fd5b610390600480803573ffffffffffffffffffffffffffffffffffffffff16906020019091908035906020019091908035906020019091905050610db0565b6040518082815260200191505060405180910390f35b34156103b157600080fd5b6103c76004808035906020019091905050610f48565b604051808381526020018281526020019250505060405180910390f35b34156103ef57600080fd5b610436600480803573ffffffffffffffffffffffffffffffffffffffff16906020019091908035906020019091908035906020019091908035906020019091905050610f62565b6040518082815260200191505060405180910390f35b341561045757600080fd5b61046d60048080359060200190919050506110cd565b604051808215151515815260200191505060405180910390f35b341561049257600080fd5b6104dd600480803573ffffffffffffffffffffffffffffffffffffffff1690602001909190803573ffffffffffffffffffffffffffffffffffffffff16906020019091905050611123565b604051808215151515815260200191505060405180910390f35b341561050257600080fd5b61050a6111b7565b6040518080602001828103825283818151815260200191508051906020019080838360005b8381101561054a57808201518184015260208101905061052f565b50505050905090810190601f1680156105775780820380516001836020036101000a031916815260200191505b509250505060405180910390f35b341561059057600080fd5b6105a6600480803590602001909190505061125f565b005b34156105b357600080fd5b6105d26004808035906020019091908035906020019091905050611325565b005b34156105df57600080fd5b6105e76113dc565b6040518080602001828103825283818151815260200191508051906020019080838360005b8381101561062757808201518184015260208101905061060c565b50505050905090810190601f1680156106545780820380516001836020036101000a031916815260200191505b509250505060405180910390f35b341561066d57600080fd5b6106836004808035906020019091905050611484565b6040518082815260200191505060405180910390f35b34156106a457600080fd5b6106e2600480803573ffffffffffffffffffffffffffffffffffffffff1690602001909190803590602001909190803590602001909190505061149c565b005b34156106ef57600080fd5b610724600480803573ffffffffffffffffffffffffffffffffffffffff169060200190919080359060200190919050506116a5565b005b341561073157600080fd5b61074760048080359060200190919050506116d7565b6040518080602001828103825283818151815260200191508051906020019080838360005b8381101561078757808201518184015260208101905061076c565b50505050905090810190601f1680156107b45780820380516001836020036101000a031916815260200191505b509250505060405180910390f35b34156107cd57600080fd5b610804600480803573ffffffffffffffffffffffffffffffffffffffff169060200190919080351515906020019091905050611792565b005b341561081157600080fd5b610827600480803590602001909190505061184a565b6040518080602001828103825283818151815260200191508051906020019080838360005b8381101561086757808201518184015260208101905061084c565b50505050905090810190601f1680156108945780820380516001836020036101000a031916815260200191505b509250505060405180910390f35b34156108ad57600080fd5b610925600480803573ffffffffffffffffffffffffffffffffffffffff1690602001909190803590602001909190803590602001908201803590602001908080601f0160208091040260200160405190810160405280939291908181526020018383808284378201915050505050509190505061195e565b005b341561093257600080fd5b61095e600480803573ffffffffffffffffffffffffffffffffffffffff16906020019091905050611981565b6040518082815260200191505060405180910390f35b341561097f57600080fd5b6109b4600480803573ffffffffffffffffffffffffffffffffffffffff169060200190919080359060200190919050506119cd565b6040518082815260200191505060405180910390f35b34156109d557600080fd5b610a4d600480803590602001909190803573ffffffffffffffffffffffffffffffffffffffff1690602001909190803590602001908201803590602001908080601f01602080910402602001604051908101604052809392919081815260200183838082843782019150505050505091905050611a9d565b005b3415610a5a57600080fd5b610a98600480803573ffffffffffffffffffffffffffffffffffffffff16906020019091908035906020019091908035906020019091905050611aad565b6040518082815260200191505060405180910390f35b3415610ab957600080fd5b610acf6004808035906020019091905050611ad6565b604051808273ffffffffffffffffffffffffffffffffffffffff1673ffffffffffffffffffffffffffffffffffffffff16815260200191505060405180910390f35b3415610b1c57600080fd5b610bd7600480803573ffffffffffffffffffffffffffffffffffffffff1690602001909190803590602001909190803590602001908201803590602001908080601f0160208091040260200160405190810160405280939291908181526020018383808284378201915050505050509190803590602001908201803590602001908080601f01602080910402602001604051908101604052809392919081815260200183838082843782019150505050505091905050611b13565b005b610be161349c565b60008054600181600116156101000203166002900480601f016020809104026020016040519081016040528092919081815260200182805460018160011615610100020316600290048015610c775780601f10610c4c57610100808354040283529160200191610c77565b820191906000526020600020905b815481529060010190602001808311610c5a57829003601f168201915b5050505050905090565b6000600454905090565b610c936134b0565b600560008373ffffffffffffffffffffffffffffffffffffffff1673ffffffffffffffffffffffffffffffffffffffff168152602001908152602001600020805480602002602001604051908101604052809291908181526020018280548015610d1c57602002820191906000526020600020905b815481526020019060010190808311610d08575b50505050509050919050565b6000806006600084815260200190815260200160002060009054906101000a900473ffffffffffffffffffffffffffffffffffffffff16905060008173ffffffffffffffffffffffffffffffffffffffff1614151515610d8757600080fd5b80915050919050565b600a6020528060005260406000206000915054906101000a900460ff1681565b600080600360009054906101000a900473ffffffffffffffffffffffffffffffffffffffff1673ffffffffffffffffffffffffffffffffffffffff163373ffffffffffffffffffffffffffffffffffffffff16141515610e0f57600080fd5b600c600085815260200190815260200160002060008673ffffffffffffffffffffffffffffffffffffffff1673ffffffffffffffffffffffffffffffffffffffff168152602001908152602001600020549050600081141515610e7457809150610f40565b82600c600086815260200190815260200160002060008773ffffffffffffffffffffffffffffffffffffffff1673ffffffffffffffffffffffffffffffffffffffff168152602001908152602001600020819055507f363b829d908ad4f56b24393b49098effb719c23a566c113f3a9df66017d931eb858585604051808473ffffffffffffffffffffffffffffffffffffffff1673ffffffffffffffffffffffffffffffffffffffff168152602001838152602001828152602001935050505060405180910390a18291505b509392505050565b600080610f553384611b26565b8092508193505050915091565b600080600080600360009054906101000a900473ffffffffffffffffffffffffffffffffffffffff1673ffffffffffffffffffffffffffffffffffffffff163373ffffffffffffffffffffffffffffffffffffffff16141515610fc457600080fd5b600d60008881526020019081526020016000205491506000905060008210151561102e576064828702811515610ff657fe5b049050808603955061102c600360009054906101000a900473ffffffffffffffffffffffffffffffffffffffff16888388611b7a565b505b61103a88888888611b7a565b92507f200dc678b20ca42d6b4c20cb1ff856ac2cc6d8aceb48e973637bd2023ca052f48888888887604051808673ffffffffffffffffffffffffffffffffffffffff1673ffffffffffffffffffffffffffffffffffffffff1681526020018581526020018481526020018381526020018281526020019550505050505060405180910390a1829350505050949350505050565b6000806006600084815260200190815260200160002060009054906101000a900473ffffffffffffffffffffffffffffffffffffffff1673ffffffffffffffffffffffffffffffffffffffff1614159050919050565b6000600960008373ffffffffffffffffffffffffffffffffffffffff1673ffffffffffffffffffffffffffffffffffffffff16815260200190815260200160002060008473ffffffffffffffffffffffffffffffffffffffff1673ffffffffffffffffffffffffffffffffffffffff16815260200190815260200160002060009054906101000a900460ff16905092915050565b6111bf61349c565b60028054600181600116156101000203166002900480601f0160208091040260200160405190810160405280929190818152602001828054600181600116156101000203166002900480156112555780601f1061122a57610100808354040283529160200191611255565b820191906000526020600020905b81548152906001019060200180831161123857829003601f168201915b5050505050905090565b803373ffffffffffffffffffffffffffffffffffffffff166006600083815260200190815260200160002060009054906101000a900473ffffffffffffffffffffffffffffffffffffffff1673ffffffffffffffffffffffffffffffffffffffff161415156112cd57600080fd5b600a600083815260200190815260200160002060009054906101000a900460ff161515611321576001600a600084815260200190815260200160002060006101000a81548160ff0219169083151502179055505b5050565b600360009054906101000a900473ffffffffffffffffffffffffffffffffffffffff1673ffffffffffffffffffffffffffffffffffffffff163373ffffffffffffffffffffffffffffffffffffffff1614151561138157600080fd5b80600d6000848152602001908152602001600020819055507fb38861df2021d3b74b0b3c8cd766bc447c1cfee6541489ad5aa718af86a5c3c88282604051808381526020018281526020019250505060405180910390a15050565b6113e461349c565b60018054600181600116156101000203166002900480601f01602080910402602001604051908101604052809291908181526020018280546001816001161561010002031660029004801561147a5780601f1061144f5761010080835404028352916020019161147a565b820191906000526020600020905b81548152906001019060200180831161145d57829003601f168201915b5050505050905090565b600b6020528060005260406000206000915090505481565b600080600a600085815260200190815260200160002060009054906101000a900460ff161561169e576000600a600086815260200190815260200160002060006101000a81548160ff02191690831515021790555073bfea297cad970b59364b5a0f9d78bfa42d70575691508190508073ffffffffffffffffffffffffffffffffffffffff166323b872dd866006600088815260200190815260200160002060009054906101000a900473ffffffffffffffffffffffffffffffffffffffff16866000604051602001526040518463ffffffff167c0100000000000000000000000000000000000000000000000000000000028152600401808473ffffffffffffffffffffffffffffffffffffffff1673ffffffffffffffffffffffffffffffffffffffff1681526020018373ffffffffffffffffffffffffffffffffffffffff1673ffffffffffffffffffffffffffffffffffffffff1681526020018281526020019350505050602060405180830381600087803b151561161d57600080fd5b6102c65a03f1151561162e57600080fd5b50505060405180519050156116705761166b8585602060405190810160405280600081525060006020604051908101604052806000815250611d36565b61169d565b6001600a600086815260200190815260200160002060006101000a81548160ff0219169083151502179055505b5b5050505050565b6116d382826020604051908101604052806000815250600060206040519081016040528060008152506121b8565b5050565b6116df61349c565b600860008381526020019081526020016000208054600181600116156101000203166002900480601f0160208091040260200160405190810160405280929190818152602001828054600181600116156101000203166002900480156117865780601f1061175b57610100808354040283529160200191611786565b820191906000526020600020905b81548152906001019060200180831161176957829003601f168201915b50505050509050919050565b80156117bd576117a28233611123565b1515156117ae57600080fd5b6117b88233612319565b6117dd565b6117c78233611123565b15156117d257600080fd5b6117dc82336123b2565b5b3373ffffffffffffffffffffffffffffffffffffffff168273ffffffffffffffffffffffffffffffffffffffff167ffe1dcbb12493a4af760875b0c328b264e6397b8bd47cdc249df0444b4daf1cbc83604051808215151515815260200191505060405180910390a35050565b61185261349c565b60006006600084815260200190815260200160002060009054906101000a900473ffffffffffffffffffffffffffffffffffffffff1673ffffffffffffffffffffffffffffffffffffffff16141515156118ab57600080fd5b600860008381526020019081526020016000208054600181600116156101000203166002900480601f0160208091040260200160405190810160405280929190818152602001828054600181600116156101000203166002900480156119525780601f1061192757610100808354040283529160200191611952565b820191906000526020600020905b81548152906001019060200180831161193557829003601f168201915b50505050509050919050565b61197c838383600060206040519081016040528060008152506121b8565b505050565b6000600560008373ffffffffffffffffffffffffffffffffffffffff1673ffffffffffffffffffffffffffffffffffffffff168152602001908152602001600020805490509050919050565b6000600560008473ffffffffffffffffffffffffffffffffffffffff1673ffffffffffffffffffffffffffffffffffffffff1681526020019081526020016000208054905082101515611a1f57600080fd5b6f8000000000000000000000000000000082101515611a3d57600080fd5b600560008473ffffffffffffffffffffffffffffffffffffffff1673ffffffffffffffffffffffffffffffffffffffff16815260200190815260200160002082815481101515611a8957fe5b906000526020600020900154905092915050565b611aa883838361244b565b505050565b600080611abb858585610db0565b90508281141515611acb57600080fd5b809150509392505050565b60006006600083815260200190815260200160002060009054906101000a900473ffffffffffffffffffffffffffffffffffffffff169050919050565b611b2084848433856121b8565b50505050565b600080600080600093506000925060009150611b4286866125b1565b9050600081141515611b7157611b5781612709565b80955081935050508482141515611b6d57600080fd5b8092505b50509250929050565b60008060008060008087945060009350428710611b975786611b99565b425b9650611ba58a8a6125b1565b9250600083141515611bc757611bbe8a88858b8d612986565b80955081965050505b4233604051808381526020018273ffffffffffffffffffffffffffffffffffffffff1673ffffffffffffffffffffffffffffffffffffffff166c010000000000000000000000000281526014019250505060405180910390209150611c2d8986846129c7565b9050611c398a82612b8f565b83600f60008381526020019081526020016000208190555086600e600083815260200190815260200160002081905550600083141515611cab57600f600084815260200190815260200160002060009055600e600084815260200190815260200160002060009055611caa83612c8d565b5b7f834d2a8a16080d02816abcaa3348dec93daf4e3833fab334799913b68cbe75368a8a8784604051808573ffffffffffffffffffffffffffffffffffffffff1673ffffffffffffffffffffffffffffffffffffffff16815260200184815260200183815260200182815260200194505050505060405180910390a18095505050505050949350505050565b6000806006600087815260200190815260200160002060009054906101000a900473ffffffffffffffffffffffffffffffffffffffff169150611d798287612da7565b611d838787612b8f565b611d8c87613084565b1561204357601060009054906101000a900460ff16151515611dad57600080fd5b6001601060006101000a81548160ff021916908315150217905550611e07876040805190810160405280600c81526020017f494173736574486f6c6465720000000000000000000000000000000000000000815250613097565b905060008173ffffffffffffffffffffffffffffffffffffffff1614151515611e2f57600080fd5b8073ffffffffffffffffffffffffffffffffffffffff16633bde307287848a8989896040518763ffffffff167c0100000000000000000000000000000000000000000000000000000000028152600401808781526020018673ffffffffffffffffffffffffffffffffffffffff1673ffffffffffffffffffffffffffffffffffffffff1681526020018573ffffffffffffffffffffffffffffffffffffffff1673ffffffffffffffffffffffffffffffffffffffff168152602001806020018473ffffffffffffffffffffffffffffffffffffffff1673ffffffffffffffffffffffffffffffffffffffff16815260200180602001838103835286818151815260200191508051906020019080838360005b83811015611f5c578082015181840152602081019050611f41565b50505050905090810190601f168015611f895780820380516001836020036101000a031916815260200191505b50838103825284818151815260200191508051906020019080838360005b83811015611fc2578082015181840152602081019050611fa7565b50505050905090810190601f168015611fef5780820380516001836020036101000a031916815260200191505b5098505050505050505050600060405180830381600087803b151561201357600080fd5b6102c65a03f1151561202457600080fd5b5050506000601060006101000a81548160ff0219169083151502179055505b858773ffffffffffffffffffffffffffffffffffffffff168373ffffffffffffffffffffffffffffffffffffffff167f8988d59efc2c4547ef86c88f6543963bab0cea94f8e486e619c7c3a790db93be878988604051808473ffffffffffffffffffffffffffffffffffffffff1673ffffffffffffffffffffffffffffffffffffffff1681526020018060200180602001838103835285818151815260200191508051906020019080838360005b8381101561210c5780820151818401526020810190506120f1565b50505050905090810190601f1680156121395780820380516001836020036101000a031916815260200191505b50838103825284818151815260200191508051906020019080838360005b83811015612172578082015181840152602081019050612157565b50505050905090810190601f16801561219f5780820380516001836020036101000a031916815260200191505b509550505050505060405180910390a450505050505050565b8460008173ffffffffffffffffffffffffffffffffffffffff16141515156121df57600080fd5b84868073ffffffffffffffffffffffffffffffffffffffff166006600084815260200190815260200160002060009054906101000a900473ffffffffffffffffffffffffffffffffffffffff1673ffffffffffffffffffffffffffffffffffffffff161415151561224f57600080fd5b863373ffffffffffffffffffffffffffffffffffffffff166006600083815260200190815260200160002060009054906101000a900473ffffffffffffffffffffffffffffffffffffffff1673ffffffffffffffffffffffffffffffffffffffff1614806122f657506122f5336006600084815260200190815260200160002060009054906101000a900473ffffffffffffffffffffffffffffffffffffffff16611123565b5b151561230157600080fd5b61230e8989898989611d36565b505050505050505050565b6001600960008373ffffffffffffffffffffffffffffffffffffffff1673ffffffffffffffffffffffffffffffffffffffff16815260200190815260200160002060008473ffffffffffffffffffffffffffffffffffffffff1673ffffffffffffffffffffffffffffffffffffffff16815260200190815260200160002060006101000a81548160ff0219169083151502179055505050565b6000600960008373ffffffffffffffffffffffffffffffffffffffff1673ffffffffffffffffffffffffffffffffffffffff16815260200190815260200160002060008473ffffffffffffffffffffffffffffffffffffffff1673ffffffffffffffffffffffffffffffffffffffff16815260200190815260200160002060006101000a81548160ff0219169083151502179055505050565b60006006600085815260200190815260200160002060009054906101000a900473ffffffffffffffffffffffffffffffffffffffff1673ffffffffffffffffffffffffffffffffffffffff161415156124a357600080fd5b6124ae8284836131f3565b828273ffffffffffffffffffffffffffffffffffffffff1660007f8988d59efc2c4547ef86c88f6543963bab0cea94f8e486e619c7c3a790db93be3385604051808373ffffffffffffffffffffffffffffffffffffffff1673ffffffffffffffffffffffffffffffffffffffff1681526020018060200180602001838103835284818151815260200191508051906020019080838360005b83811015612561578082015181840152602081019050612546565b50505050905090810190601f16801561258e5780820380516001836020036101000a031916815260200191505b5083810382526000815260200160200194505050505060405180910390a4505050565b60008060006125be6134b0565b6000806125ca88611981565b14156125d957600094506126ff565b600560008873ffffffffffffffffffffffffffffffffffffffff1673ffffffffffffffffffffffffffffffffffffffff16815260200190815260200160002080548060200260200160405190810160405280929190818152602001828054801561266257602002820191906000526020600020905b81548152602001906001019080831161264e575b50505050509150600090505b81518110156126fa57612697828281518110151561268857fe5b90602001906020020151612709565b8094508195505050858414156126ed576126c782828151811015156126b857fe5b9060200190602002015161322a565b15156126ec5781818151811015156126db57fe5b9060200190602002015194506126ff565b5b808060010191505061266e565b600094505b5050505092915050565b6000806127146134c4565b61271c6134c4565b6127246134c4565b600060206040518059106127355750595b9080825280601f01601f19166020018201604052509350602060405180591061275b5750595b9080825280601f01601f1916602001820160405250925061277b876132b1565b915081601e81518110151561278c57fe5b9060200101517f010000000000000000000000000000000000000000000000000000000000000090047f01000000000000000000000000000000000000000000000000000000000000000284601e8151811015156127e657fe5b9060200101907effffffffffffffffffffffffffffffffffffffffffffffffffffffffffffff1916908160001a90535081601f81518110151561282557fe5b9060200101517f010000000000000000000000000000000000000000000000000000000000000090047f01000000000000000000000000000000000000000000000000000000000000000284601f81518110151561287f57fe5b9060200101907effffffffffffffffffffffffffffffffffffffffffffffffffffffffffffff1916908160001a905350600090505b60088110156129675781816016018151811015156128ce57fe5b9060200101517f010000000000000000000000000000000000000000000000000000000000000090047f010000000000000000000000000000000000000000000000000000000000000002838260180181518110151561292a57fe5b9060200101907effffffffffffffffffffffffffffffffffffffffffffffffffffffffffffff1916908160001a90535080806001019150506128b4565b612970846132fa565b955061297b836132fa565b945050505050915091565b6000806000806129988988878b613326565b92506129a387612709565b809350819250505084811415156129b657fe5b818601935050509550959350505050565b60008060006129d46134c4565b6000808860010294508760010293506129ec87613408565b925060208351141515612a025760009550612b83565b84601e602081101515612a1157fe5b1a7f01000000000000000000000000000000000000000000000000000000000000000283601e815181101515612a4357fe5b9060200101907effffffffffffffffffffffffffffffffffffffffffffffffffffffffffffff1916908160001a90535084601f602081101515612a8257fe5b1a7f01000000000000000000000000000000000000000000000000000000000000000283601f815181101515612ab457fe5b9060200101907effffffffffffffffffffffffffffffffffffffffffffffffffffffffffffff1916908160001a905350600091505b6008821015612b74578382601801602081101515612b0357fe5b1a7f0100000000000000000000000000000000000000000000000000000000000000028383601601815181101515612b3757fe5b9060200101907effffffffffffffffffffffffffffffffffffffffffffffffffffffffffffff1916908160001a9053508180600101925050612ae9565b612b7d836132fa565b90508095505b50505050509392505050565b6000826006600084815260200190815260200160002060006101000a81548173ffffffffffffffffffffffffffffffffffffffff021916908373ffffffffffffffffffffffffffffffffffffffff160217905550612bec83611981565b9050600560008473ffffffffffffffffffffffffffffffffffffffff1673ffffffffffffffffffffffffffffffffffffffff1681526020019081526020016000208054806001018281612c3f91906134d8565b916000526020600020900160008490919091505550806007600084815260200190815260200160002081905550612c82600160045461342a90919063ffffffff16565b600481905550505050565b60006006600083815260200190815260200160002060009054906101000a900473ffffffffffffffffffffffffffffffffffffffff16905060008173ffffffffffffffffffffffffffffffffffffffff1614151515612ceb57600080fd5b612cf58183612da7565b612cfe82613448565b8160008273ffffffffffffffffffffffffffffffffffffffff167f8988d59efc2c4547ef86c88f6543963bab0cea94f8e486e619c7c3a790db93be33604051808273ffffffffffffffffffffffffffffffffffffffff1673ffffffffffffffffffffffffffffffffffffffff1681526020018060200180602001838103835260008152602001602001838103825260008152602001602001935050505060405180910390a45050565b600080600060076000858152602001908152602001600020549250612dde6001612dd087611981565b61348390919063ffffffff16565b9150600560008673ffffffffffffffffffffffffffffffffffffffff1673ffffffffffffffffffffffffffffffffffffffff16815260200190815260200160002082815481101515612e2c57fe5b906000526020600020900154905060006006600086815260200190815260200160002060006101000a81548173ffffffffffffffffffffffffffffffffffffffff021916908373ffffffffffffffffffffffffffffffffffffffff16021790555080600560008773ffffffffffffffffffffffffffffffffffffffff1673ffffffffffffffffffffffffffffffffffffffff16815260200190815260200160002084815481101515612eda57fe5b9060005260206000209001819055506000600560008773ffffffffffffffffffffffffffffffffffffffff1673ffffffffffffffffffffffffffffffffffffffff16815260200190815260200160002083815481101515612f3757fe5b906000526020600020900181905550600560008673ffffffffffffffffffffffffffffffffffffffff1673ffffffffffffffffffffffffffffffffffffffff168152602001908152602001600020805480919060019003612f989190613504565b506000600560008773ffffffffffffffffffffffffffffffffffffffff1673ffffffffffffffffffffffffffffffffffffffff16815260200190815260200160002080549050141561303057600560008673ffffffffffffffffffffffffffffffffffffffff1673ffffffffffffffffffffffffffffffffffffffff168152602001908152602001600020600061302f9190613530565b5b60006007600086815260200190815260200160002081905550826007600083815260200190815260200160002081905550613077600160045461348390919063ffffffff16565b6004819055505050505050565b600080823b905060008111915050919050565b6000601060019054906101000a900473ffffffffffffffffffffffffffffffffffffffff1673ffffffffffffffffffffffffffffffffffffffff1663aabbb8ca84846040518082805190602001908083835b60208310151561310e57805182526020820191506020810190506020830392506130e9565b6001836020036101000a03801982511681845116808217855250505050505090500191505060405180910390206000604051602001526040518363ffffffff167c0100000000000000000000000000000000000000000000000000000000028152600401808373ffffffffffffffffffffffffffffffffffffffff1673ffffffffffffffffffffffffffffffffffffffff168152602001826000191660001916815260200192505050602060405180830381600087803b15156131d057600080fd5b6102c65a03f115156131e157600080fd5b50505060405180519050905092915050565b6131fd8383612b8f565b80600860008481526020019081526020016000209080519060200190613224929190613551565b50505050565b6000806000806000600b60008781526020019081526020016000205493506000841415156132a15742841115156132a057600b60008781526020019081526020016000206000905561327b86611ad6565b905061328686612709565b809350819450505061329a81848442611b7a565b50600093505b5b6000841415945050505050919050565b6132b96134c4565b6132c16134c4565b60206040518059106132d05750595b9080825280601f01601f191660200182016040525090506020815282602082015280915050919050565b60008060009050602083511415156133155760009150613320565b602083015190508091505b50919050565b6000806000806000600f6000898152602001908152602001600020549350600e6000898152602001908152602001600020549250600c600088815260200190815260200160002060008a73ffffffffffffffffffffffffffffffffffffffff1673ffffffffffffffffffffffffffffffffffffffff168152602001908152602001600020549150610e106018028387038115156133bf57fe5b0490508082028401945084600f60008a81526020019081526020016000208190555085600e60008a81526020019081526020016000208190555084945050505050949350505050565b6134106134c4565b600082600190049050613422816132b1565b915050919050565b600080828401905083811015151561343e57fe5b8091505092915050565b602060405190810160405280600081525060086000838152602001908152602001600020908051906020019061347f929190613551565b5050565b600082821115151561349157fe5b818303905092915050565b602060405190810160405280600081525090565b602060405190810160405280600081525090565b602060405190810160405280600081525090565b8154818355818115116134ff578183600052602060002091820191016134fe91906135d1565b5b505050565b81548183558181151161352b5781836000526020600020918201910161352a91906135d1565b5b505050565b508054600082559060005260206000209081019061354e91906135d1565b50565b828054600181600116156101000203166002900490600052602060002090601f016020900481019282601f1061359257805160ff19168380011785556135c0565b828001600101855582156135c0579182015b828111156135bf5782518255916020019190600101906135a4565b5b5090506135cd91906135d1565b5090565b6135f391905b808211156135ef5760008160009055506001016135d7565b5090565b905600a165627a7a72305820950574e91ebb3c13bfa02f5a5236817832e012ca32b0647364aa40dd924577060029",
  "source": "pragma solidity ^0.4.18;\r\n\r\n import 'zeppelin-solidity/contracts/math/SafeMath.sol';\r\n\r\nimport './InterfaceImplementationRegistry.sol';\r\nimport './EIP820.sol';\r\n\r\nimport './AssetRegistryStorage.sol';\r\n\r\nimport './IAssetRegistry.sol';\r\n\r\nimport './IAssetHolder.sol';\r\n\r\nimport './AxEuroToken.sol';\r\n\r\ncontract AxStandardAssetRegistry is AssetRegistryStorage, IAssetRegistry, EIP820 {\r\n  using SafeMath for uint256;\r\n\r\n\r\n  function AxStandardAssetRegistry() public \r\n  {\r\n    _contractOwner = msg.sender;\r\n  }\r\n\r\n  //\r\n  // Global Getters\r\n  //\r\n\r\n  function name() public view returns (string) {\r\n    return _name;\r\n  }\r\n\r\n  function symbol() public view returns (string) {\r\n    return _symbol;\r\n  }\r\n\r\n  function description() public view returns (string) {\r\n    return _description;\r\n  }\r\n\r\n  function totalSupply() public view returns (uint256) {\r\n    return _count;\r\n  }\r\n\r\n  //\r\n  // Asset-centric getter functions\r\n  //\r\n\r\n  function exists(uint256 assetId) public view returns (bool) {\r\n    return _holderOf[assetId] != 0;\r\n  }\r\n\r\n  function holderOf(uint256 assetId) public view returns (address) {\r\n    return _holderOf[assetId];\r\n  }\r\n\r\n  function safeHolderOf(uint256 assetId) public view returns (address) {\r\n    address holder = _holderOf[assetId];\r\n    require(holder != 0);\r\n    return holder;\r\n  }\r\n\r\n  function assetData(uint256 assetId) public view returns (string) {\r\n    return _assetData[assetId];\r\n  }\r\n\r\n  function safeAssetData(uint256 assetId) public view returns (string) {\r\n    require(_holderOf[assetId] != 0);\r\n    return _assetData[assetId];\r\n  }\r\n\r\n  //\r\n  // Holder-centric getter functions\r\n  //\r\n\r\n  function assetCount(address holder) public view returns (uint256) {\r\n    return _assetsOf[holder].length;\r\n  }\r\n\r\n  function assetByIndex(address holder, uint256 index) public view returns (uint256) {\r\n    require(index < _assetsOf[holder].length);\r\n    require(index < (1<<127));\r\n    return _assetsOf[holder][index];\r\n  }\r\n\r\n  function assetsOf(address holder) external view returns (uint256[]) {\r\n    return _assetsOf[holder];\r\n  }\r\n\r\n  //\r\n  // Authorization getters\r\n  //\r\n\r\n  function isOperatorAuthorizedFor(address operator, address assetHolder)\r\n    public view returns (bool)\r\n  {\r\n    return _operators[assetHolder][operator];\r\n  }\r\n\r\n  function authorizeOperator(address operator, bool authorized) public {\r\n    if (authorized) {\r\n      require(!isOperatorAuthorizedFor(operator, msg.sender));\r\n      _addAuthorization(operator, msg.sender);\r\n    } else {\r\n      require(isOperatorAuthorizedFor(operator, msg.sender));\r\n      _clearAuthorization(operator, msg.sender);\r\n    }\r\n    AuthorizeOperator(operator, msg.sender, authorized);\r\n  }\r\n\r\n  function _addAuthorization(address operator, address holder) private {\r\n    _operators[holder][operator] = true;\r\n  }\r\n\r\n  function _clearAuthorization(address operator, address holder) private {\r\n    _operators[holder][operator] = false;\r\n  }\r\n\r\n  //\r\n  // Internal Operations\r\n  //\r\n\r\n  function _addAssetTo(address to, uint256 assetId) internal {\r\n    _holderOf[assetId] = to;\r\n\r\n    uint256 length = assetCount(to);\r\n\r\n    _assetsOf[to].push(assetId);\r\n\r\n    _indexOfAsset[assetId] = length;\r\n\r\n    _count = _count.add(1);\r\n  }\r\n\r\n  function _addAssetTo(address to, uint256 assetId, string data) internal {\r\n    _addAssetTo(to, assetId);\r\n\r\n    _assetData[assetId] = data;\r\n  }\r\n\r\n  function _removeAssetFrom(address from, uint256 assetId) internal {\r\n    uint256 assetIndex = _indexOfAsset[assetId];\r\n    uint256 lastAssetIndex = assetCount(from).sub(1);\r\n    uint256 lastAssetId = _assetsOf[from][lastAssetIndex];\r\n\r\n    _holderOf[assetId] = 0;\r\n\r\n    // Insert the last asset into the position previously occupied by the asset to be removed\r\n    _assetsOf[from][assetIndex] = lastAssetId;\r\n\r\n    // Resize the array\r\n    _assetsOf[from][lastAssetIndex] = 0;\r\n    _assetsOf[from].length--;\r\n\r\n    // Remove the array if no more assets are owned to prevent pollution\r\n    if (_assetsOf[from].length == 0) {\r\n      delete _assetsOf[from];\r\n    }\r\n\r\n    // Update the index of positions for the asset\r\n    _indexOfAsset[assetId] = 0;\r\n    _indexOfAsset[lastAssetId] = assetIndex;\r\n\r\n    _count = _count.sub(1);\r\n  }\r\n\r\n  function _removeAssetData(uint256 assetId) internal {\r\n    _assetData[assetId] = '';\r\n  }\r\n\r\n  //\r\n  // Supply-altering functions\r\n  //\r\n\r\n  function _generate(uint256 assetId, address beneficiary, string data) internal {\r\n    require(_holderOf[assetId] == 0);\r\n\r\n    _addAssetTo(beneficiary, assetId, data);\r\n\r\n    Transfer(0, beneficiary, assetId, msg.sender, bytes(data), '');\r\n  }\r\n\r\n  function _destroy(uint256 assetId) internal {\r\n    address holder = _holderOf[assetId];\r\n    require(holder != 0);\r\n\r\n    _removeAssetFrom(holder, assetId);\r\n    _removeAssetData(assetId);\r\n\r\n    Transfer(holder, 0, assetId, msg.sender, '', '');\r\n  }\r\n\r\n  //\r\n  // Transaction related operations\r\n  //\r\n\r\n  modifier onlyHolder(uint256 assetId) {\r\n    require(_holderOf[assetId] == msg.sender);\r\n    _;\r\n  }\r\n\r\n  modifier onlyOperatorOrHolder(uint256 assetId) {\r\n    require(_holderOf[assetId] == msg.sender\r\n         || isOperatorAuthorizedFor(msg.sender, _holderOf[assetId]));\r\n    _;\r\n  }\r\n\r\n  modifier isDestinataryDefined(address destinatary) {\r\n    require(destinatary != 0);\r\n    _;\r\n  }\r\n\r\n  modifier destinataryIsNotHolder(uint256 assetId, address to) {\r\n    require(_holderOf[assetId] != to);\r\n    _;\r\n  }\r\n\r\n\r\n  function transfer(address to, uint256 assetId) public {\r\n    return _doTransfer(to, assetId, '', 0, '');\r\n  }\r\n\r\n  function transfer(address to, uint256 assetId, bytes userData) public {\r\n    return _doTransfer(to, assetId, userData, 0, '');\r\n  }\r\n\r\n  function transfer(address to, uint256 assetId, bytes userData, bytes operatorData) public {\r\n    return _doTransfer(to, assetId, userData, msg.sender, operatorData);\r\n  }\r\n\r\n  function _doTransfer(\r\n    address to, uint256 assetId, bytes userData, address operator, bytes operatorData\r\n  )\r\n    isDestinataryDefined(to)\r\n    destinataryIsNotHolder(assetId, to)\r\n    onlyOperatorOrHolder(assetId)\r\n    internal\r\n  {\r\n    return _doSend(to, assetId, userData, operator, operatorData);\r\n  }\r\n\r\n\r\n  function _doSend(\r\n    address to, uint256 assetId, bytes userData, address operator, bytes operatorData\r\n  )\r\n    internal\r\n  {\r\n    address holder = _holderOf[assetId];\r\n    _removeAssetFrom(holder, assetId);\r\n    _addAssetTo(to, assetId);\r\n\r\n    if (_isContract(to)) {\r\n      require(!_reentrancy);\r\n      _reentrancy = true;\r\n\r\n      address recipient = interfaceAddr(to, 'IAssetHolder');\r\n      require(recipient != 0);\r\n\r\n      IAssetHolder(recipient).onAssetReceived(assetId, holder, to, userData, operator, operatorData);\r\n\r\n      _reentrancy = false;\r\n    }\r\n\r\n    Transfer(holder, to, assetId, operator, userData, operatorData);\r\n  }\r\n\r\n  //\r\n  // Update related functions\r\n  //\r\n\r\n  function _update(uint256 assetId, string data) internal {\r\n    require(exists(assetId));\r\n    _assetData[assetId] = data;\r\n    Update(assetId, _holderOf[assetId], msg.sender, data);\r\n  }\r\n\r\n  //\r\n  // Utilities\r\n  //\r\n\r\n  function _isContract(address addr) internal view returns (bool) {\r\n    uint size;\r\n    assembly { size := extcodesize(addr) }\r\n    return size > 0;\r\n  }\r\n\r\n//Axgro specific:\r\n////////////////////////////////////////////////////////////////////////\r\n// events:\r\nevent Aggregate(address newOwner, uint commodityIdx, uint amount, uint256 newAssetId);\r\nevent NewStoreContract( address newCustomer, uint commodityIdx, uint costPerDay);\r\nevent StoreCommodity(address owner, uint commodityIdx, uint store_amount, uint store_date, uint256 assetId);\r\nevent SetShrinkage(uint commodityIdx, uint shrinkagePercent);\r\n////////////////////////////////////////////////////////////////////////\r\n// modifier\r\nmodifier isOwner() {\r\n        require(msg.sender == _contractOwner);\r\n        _;\r\n    }\r\n\r\n////////////////////////////////////////////////////////////////////////\r\n// functions:\r\n\r\n//4u added:\r\n  function generate(uint256 assetId, address beneficiary, string data) public {\r\n\t_generate(assetId, beneficiary, data);\r\n  }\r\n  \r\n  \r\n\r\n  function offer(uint256 assetId) onlyHolder(assetId) public { \r\n\t//TODO: add amount add time limit\r\n  if(!_isOffered[assetId])\r\n\t\t_isOffered[assetId] = true;\r\n\t//TODO: generate event\r\n  }\r\n  \r\n  function buy(address buyer, uint256 assetId, uint256 amount) public {\r\n\t// TODO: add reentrancy lock...\r\n  \r\n\tif(_isOffered[assetId]) {\r\n\t\t_isOffered[assetId] = false;\r\n\t\t// get axtoken instance\r\n\t\taddress axeuroaddr = 0xbFEa297CAD970b59364b5A0f9d78bfA42D705756;\r\n\t\tAxEuroToken axeuro = AxEuroToken(axeuroaddr);\r\n\t\t//axeuro.provide(_holderOf[assetId], amount);\r\n\t\tif(axeuro.transferFrom(buyer, _holderOf[assetId], amount)) {\r\n\t\t\t\t// change asset\r\n\t\t\t\t_doSend(buyer, assetId, '', 0, '');\r\n\t\t}\r\n\t\telse {\r\n\t\t\t_isOffered[assetId] = true;\r\n        }\r\n\t}\r\n  \r\n  }\r\n  \r\n\r\nfunction setShrinkage(uint commodityIdx, uint shrinkagePercent) public isOwner()\r\n{\r\n  _shrinkage[commodityIdx] = shrinkagePercent;\r\n  SetShrinkage(commodityIdx, shrinkagePercent);\r\n}\r\n\r\nfunction newStoreContract( address newCustomer, uint commodityIdx, uint costPerDay) public isOwner()  returns(uint) \r\n{\r\n\r\n    uint costs = _storageCostsPerDay[commodityIdx][newCustomer];\r\n    if(costs != 0) {\r\n      // TODO: later compute commodity of this user until now & change _storageCostsPerDay to new costPerDay\r\n      return costs;\r\n    }\r\n    else {\r\n      _storageCostsPerDay[commodityIdx][newCustomer] = costPerDay;\r\n      NewStoreContract(newCustomer, commodityIdx, costPerDay);\r\n      return costPerDay;\r\n    }\r\n}\r\n\r\nfunction safeNewStoreContract( address newCustomer, uint commodityIdx, uint costPerDay) public returns(uint)\r\n{\r\n  uint c = newStoreContract(newCustomer, commodityIdx, costPerDay);\r\n  if(c != costPerDay) {\r\n    revert();\r\n  }\r\n  return c;\r\n}\r\n\r\nfunction storeCommodity(address owner, uint commodityIdx, uint store_amount, uint store_date) public isOwner() returns(uint256)\r\n{\r\n    uint256 assetId;\r\n    uint shrinkage = _shrinkage[commodityIdx];\r\n    uint shrink = 0;\r\n    if(shrinkage >= 0) {\r\n      shrink = (store_amount * shrinkage) / 100; \r\n      store_amount -= shrink;\r\n      _aggregate(_contractOwner, commodityIdx, shrink, store_date);\r\n    }\r\n    assetId = _aggregate(owner, commodityIdx, store_amount, store_date);\r\n    \r\n    StoreCommodity(owner, commodityIdx, store_amount, store_date, assetId);\r\n    return assetId;\r\n}\r\n\r\n function getCommodityAmount(uint commodityIdx) public returns(uint amount, uint256 assetId)\r\n{\r\n   (amount, assetId) = _getCommodityAmount(msg.sender, commodityIdx);\r\n}\r\n\r\n function _getCommodityAmount(address owner, uint commodityIdx) internal returns(uint amount, uint256 assetId)\r\n {\r\n    amount = 0;\r\n    assetId = 0;\r\n    uint cId = 0;   \r\n    uint256 aId = _findCommodity(owner, commodityIdx);\r\n    if(aId != 0) {\r\n      (cId, amount) = _getFromAssetId(aId);\r\n      if(cId != commodityIdx) {\r\n        revert(); // error wrong commodity found\r\n      }\r\n      assetId = aId;\r\n    }\r\n }\r\n\r\n function _aggregate( address newOwner, uint commodityIdx, uint buy_amount, uint buyDate ) internal returns (uint ) {\r\n\r\n\tuint amount = buy_amount;\r\n\tuint sc = 0;\r\n\tbuyDate = (buyDate < now) ? now : buyDate;\r\n    uint256 oldAssetId = _findCommodity(newOwner, commodityIdx);\r\n\tif (oldAssetId != 0) {\r\n\t\t(amount, sc) = _getActualCost(newOwner, buyDate, oldAssetId, buy_amount, commodityIdx) ;\r\n\t}\r\n\tbytes32 rd = keccak256(block.timestamp, msg.sender);\r\n  uint256 newAssetId = _buildAssetId(commodityIdx, amount, rd);\r\n\t// addAsset\r\n    _addAssetTo(newOwner, newAssetId);\r\n    _storageCostsSoFar[newAssetId] = sc;\r\n\t_last_modify[newAssetId] = buyDate;\r\n\r\n\tif (oldAssetId != 0) {\r\n\t\tdelete _storageCostsSoFar[oldAssetId];\r\n\t\tdelete _last_modify[oldAssetId];\r\n\t\t_destroy(oldAssetId);\r\n\r\n\t}\r\n  Aggregate(newOwner, commodityIdx, amount, newAssetId);\r\n\treturn newAssetId;\r\n}\r\n\r\nfunction _getActualCost( address newOwner, uint buyDate, uint256 oldAssetId, uint newAmount, uint256 commodityIdx) internal returns(uint amount, uint sc) { \r\n\t/*\r\n  uint storageCosts;\r\n    // new data to be used:\r\n\tuint date;\r\n\tstorageCosts = _storageCostsSoFar[oldAssetId];\r\n\tdate = _last_modify[oldAssetId];\r\n\tuint cpd = _storageCostsPerDay[commodityIdx][newOwner];\r\n\tuint datediff = (buyDate - date) / DAYSEC; \r\n\tsc = storageCosts + (cpd * datediff);\r\n  */\r\n  sc = _updStorageCost(newOwner, oldAssetId, commodityIdx, buyDate);\r\n  uint256 oldAmount;\r\n\tuint256 testIdx;\r\n\t(testIdx, oldAmount) = _getFromAssetId(oldAssetId);\r\n\tassert(testIdx == commodityIdx);\r\n\tamount = newAmount + oldAmount;\r\n}\r\n\r\nfunction _updStorageCost(address owner, uint256 assetId, uint256 commodityIdx, uint changeDate) internal returns(uint sc) {\r\n  uint storageCosts;\r\n\tuint date;\r\n\tstorageCosts = _storageCostsSoFar[assetId];\r\n\tdate = _last_modify[assetId];\r\n\tuint cpd = _storageCostsPerDay[commodityIdx][owner];\r\n\tuint datediff = (changeDate - date) / DAYSEC; \r\n\tsc = storageCosts + (cpd * datediff);\r\n  _storageCostsSoFar[assetId] = sc;\r\n  _last_modify[assetId] = changeDate;\r\n  return sc;\r\n}\r\n\r\nfunction _splitAsset(uint256 commodityIdx, uint amount ) internal returns(uint256 splitAssetId)\r\n{\r\n  uint256 assetId = _findCommodity(msg.sender, commodityIdx);\r\n  if(assetId != 0){\r\n      uint256 cIdx;\r\n      uint allAmount;\r\n      (cIdx, allAmount) = _getFromAssetId(assetId);\r\n      require(cIdx == commodityIdx);\r\n      require(allAmount >= amount);\r\n      _updStorageCost(msg.sender, assetId, commodityIdx, now);\r\n      // split tokens\r\n  }\r\n}\r\n\r\nfunction _isOffered_Till(uint256 assetId) internal returns(bool)\r\n {\r\n   uint256 till = _isOfferedTill[assetId];\r\n   if(till != 0) {\r\n     if( till <= now) {  // no trade -> aggreagate again\r\n        uint256 commodityIdx; \r\n        uint256 amount;\r\n        delete (_isOfferedTill[assetId]);\r\n        address owner = holderOf(assetId);\r\n        (commodityIdx, amount) = _getFromAssetId(assetId);\r\n         _aggregate(owner, commodityIdx, amount, now);\r\n         till = 0;   \r\n     }\r\n   }\r\n   return (till != 0); \r\n }\r\n\r\n  function _findCommodity(address owner, uint256 commodityIdx) internal returns( uint256 assetId) {\r\n\t  uint256 cIdx;\r\n\t  uint256 amount;\r\n    if(assetCount(owner) == 0) {\r\n      return 0;\r\n    }\r\n    uint256[] memory commAry = _assetsOf[owner];\r\n\t  for (uint i = 0; i < commAry.length; i++) {\r\n\t\t  (cIdx,amount) = _getFromAssetId(commAry[i]);\r\n\t\t  if(cIdx == commodityIdx) {\r\n        if(!_isOffered_Till(commAry[i])) {\r\n\t\t\t      return commAry[i];\r\n        }\r\n\t\t  }\r\n\t  }\t\r\n\t  return 0;\t\r\n  }\r\n\r\n\r\n\r\n\r\n  function  _bytes32ToString (bytes32 data) internal pure returns (string) {\r\n    bytes memory bytesString = new bytes(32);\r\n    for (uint j=0; j<32; j++) {\r\n        byte char = byte(bytes32(uint(data) * 2 ** (8 * j)));\r\n        if (char != 0) {\r\n            bytesString[j] = char;\r\n        }\r\n    }\r\n    return string(bytesString);\r\n}\r\n \r\n \r\n  function _bytesToUint256 (bytes b32) internal pure returns (uint256)\r\n\t{\r\n\t   uint256 o_ret = 0;\r\n\t\tif(b32.length != 32)\r\n\t\t\treturn uint256(0);\r\n\t\t\t\r\n       assembly {\r\n \t\t\to_ret := mload(add(b32, 0x20))\r\n        }\r\n\t\treturn o_ret;\r\n    }\t\r\n\r\n  function _uint256ToBytes (uint256 i) internal pure returns (bytes)\r\n\t{\r\n\t   bytes memory o_ret = new bytes(32); \r\n       assembly {\r\n\t        mstore(o_ret, 0x20)\r\n\t\t\tmstore(add(o_ret, 0x20), i)\r\n        }\r\n\t\treturn o_ret;\r\n    }\t\r\n\t\r\n\tfunction _bytes32ToBytes(bytes32 b32) internal pure returns (bytes)\r\n\t{\r\n\t\tuint256 ui = uint256(b32);\r\n\t\treturn _uint256ToBytes(ui);\r\n\t}\t\r\n\t\r\n\t\r\n\tfunction _buildAssetId(uint commodity, uint amount, bytes32 rd) internal pure returns (uint256)\r\n\t{\r\n\t\t\r\n\t\tbytes32 c = bytes32(commodity);\r\n\t\tbytes32 a = bytes32(amount);\r\n\t\t\r\n\t\tbytes memory rand = _bytes32ToBytes(rd);\r\n\t\tif(rand.length != 32){ \r\n\t\t\treturn 0;   // exit\r\n\t\t}\r\n\t\t//Assert.equal(c.length, 32);\r\n\t\t//Assert.equal(a.length, 32);\r\n\r\n\t\trand[30] = c[30];\r\n\t\trand[31] = c[31];\r\n\t\tfor(uint i = 0; i < 8; i++) {\r\n\t\t\trand[22 + i] = byte(a[24 + i]);\r\n\t\t}\r\n\t\tuint256 rc = _bytesToUint256(rand);\r\n\t\treturn rc;\r\n\t}\r\n\t\r\n\tfunction _getFromAssetId(uint256 aId) internal pure returns (uint256 commodity, uint256 amount)\r\n\t{\r\n\t\tbytes memory o_c = new bytes(32);\r\n\t\tbytes memory o_a = new bytes(32);\r\n\r\n\t\tbytes memory asset = _uint256ToBytes(aId);\r\n\t\to_c[30] = asset[30];\r\n\t\to_c[31] = asset[31];\r\n\t\t\r\n\t\tfor(uint i = 0; i < 8; i++) {\r\n\t\t\to_a[24 + i] = asset[22 + i];\r\n\t\t}\r\n\t\tcommodity = _bytesToUint256(o_c);\r\n\t\tamount = _bytesToUint256(o_a);\r\n\t\t\r\n\t}\r\n\r\n\r\n}\r\n",
  "sourcePath": "C:\\Users\\4u\\axgro\\axgro1\\axgro-prototype-walter\\contracts\\AxStandardAssetRegistry.sol",
  "compiler": {
    "name": "solc",
    "version": "0.4.18+commit.9cf6e910.Emscripten.clang"
  },
  "schemaVersion": "1.0.1",
  "updatedAt": "2018-04-02T21:21:54.655Z"
}