{
  "contractName": "InterfaceImplementationRegistry",
  "abi": [
    {
      "constant": false,
      "inputs": [
        {
          "name": "addr",
          "type": "address"
        },
        {
          "name": "iHash",
          "type": "bytes32"
        },
        {
          "name": "implementer",
          "type": "address"
        }
      ],
      "name": "setInterfaceImplementer",
      "outputs": [],
      "payable": false,
      "stateMutability": "nonpayable",
      "type": "function"
    },
    {
      "constant": true,
      "inputs": [
        {
          "name": "interfaceName",
          "type": "string"
        }
      ],
      "name": "interfaceHash",
      "outputs": [
        {
          "name": "",
          "type": "bytes32"
        }
      ],
      "payable": false,
      "stateMutability": "pure",
      "type": "function"
    },
    {
      "constant": true,
      "inputs": [
        {
          "name": "addr",
          "type": "address"
        },
        {
          "name": "iHash",
          "type": "bytes32"
        }
      ],
      "name": "getInterfaceImplementer",
      "outputs": [
        {
          "name": "",
          "type": "address"
        }
      ],
      "payable": false,
      "stateMutability": "view",
      "type": "function"
    },
    {
      "constant": false,
      "inputs": [
        {
          "name": "addr",
          "type": "address"
        },
        {
          "name": "newManager",
          "type": "address"
        }
      ],
      "name": "changeManager",
      "outputs": [],
      "payable": false,
      "stateMutability": "nonpayable",
      "type": "function"
    },
    {
      "constant": true,
      "inputs": [
        {
          "name": "",
          "type": "address"
        }
      ],
      "name": "managers",
      "outputs": [
        {
          "name": "",
          "type": "address"
        }
      ],
      "payable": false,
      "stateMutability": "view",
      "type": "function"
    },
    {
      "anonymous": false,
      "inputs": [
        {
          "indexed": true,
          "name": "addr",
          "type": "address"
        },
        {
          "indexed": true,
          "name": "interfaceHash",
          "type": "bytes32"
        },
        {
          "indexed": true,
          "name": "implementer",
          "type": "address"
        }
      ],
      "name": "InterfaceImplementerSet",
      "type": "event"
    },
    {
      "anonymous": false,
      "inputs": [
        {
          "indexed": true,
          "name": "addr",
          "type": "address"
        },
        {
          "indexed": true,
          "name": "newManager",
          "type": "address"
        }
      ],
      "name": "ManagerChanged",
      "type": "event"
    }
  ],
  "bytecode": "0x6060604052341561000f57600080fd5b61076c8061001e6000396000f30060606040526004361061006d576000357c0100000000000000000000000000000000000000000000000000000000900463ffffffff16806329965a1d1461007257806365ba36c1146100d7578063aabbb8ca14610150578063b14cf5e0146101d6578063fdff9b4d1461022e575b600080fd5b341561007d57600080fd5b6100d5600480803573ffffffffffffffffffffffffffffffffffffffff169060200190919080356000191690602001909190803573ffffffffffffffffffffffffffffffffffffffff169060200190919050506102a7565b005b34156100e257600080fd5b610132600480803590602001908201803590602001908080601f01602080910402602001604051908101604052809392919081815260200183838082843782019150505050505091905050610472565b60405180826000191660001916815260200191505060405180910390f35b341561015b57600080fd5b610194600480803573ffffffffffffffffffffffffffffffffffffffff16906020019091908035600019169060200190919050506104de565b604051808273ffffffffffffffffffffffffffffffffffffffff1673ffffffffffffffffffffffffffffffffffffffff16815260200191505060405180910390f35b34156101e157600080fd5b61022c600480803573ffffffffffffffffffffffffffffffffffffffff1690602001909190803573ffffffffffffffffffffffffffffffffffffffff16906020019091905050610560565b005b341561023957600080fd5b610265600480803573ffffffffffffffffffffffffffffffffffffffff1690602001909190505061070d565b604051808273ffffffffffffffffffffffffffffffffffffffff1673ffffffffffffffffffffffffffffffffffffffff16815260200191505060405180910390f35b828073ffffffffffffffffffffffffffffffffffffffff163373ffffffffffffffffffffffffffffffffffffffff16148061036c5750600160008273ffffffffffffffffffffffffffffffffffffffff1673ffffffffffffffffffffffffffffffffffffffff16815260200190815260200160002060009054906101000a900473ffffffffffffffffffffffffffffffffffffffff1673ffffffffffffffffffffffffffffffffffffffff163373ffffffffffffffffffffffffffffffffffffffff16145b151561037757600080fd5b816000808673ffffffffffffffffffffffffffffffffffffffff1673ffffffffffffffffffffffffffffffffffffffff1681526020019081526020016000206000856000191660001916815260200190815260200160002060006101000a81548173ffffffffffffffffffffffffffffffffffffffff021916908373ffffffffffffffffffffffffffffffffffffffff1602179055508173ffffffffffffffffffffffffffffffffffffffff1683600019168573ffffffffffffffffffffffffffffffffffffffff167f93baa6efbd2244243bfee6ce4cfdd1d04fc4c0e9a786abd3a41313bd352db15360405160405180910390a450505050565b6000816040518082805190602001908083835b6020831015156104aa5780518252602082019150602081019050602083039250610485565b6001836020036101000a03801982511681845116808217855250505050505090500191505060405180910390209050919050565b60008060008473ffffffffffffffffffffffffffffffffffffffff1673ffffffffffffffffffffffffffffffffffffffff1681526020019081526020016000206000836000191660001916815260200190815260200160002060009054906101000a900473ffffffffffffffffffffffffffffffffffffffff16905092915050565b818073ffffffffffffffffffffffffffffffffffffffff163373ffffffffffffffffffffffffffffffffffffffff1614806106255750600160008273ffffffffffffffffffffffffffffffffffffffff1673ffffffffffffffffffffffffffffffffffffffff16815260200190815260200160002060009054906101000a900473ffffffffffffffffffffffffffffffffffffffff1673ffffffffffffffffffffffffffffffffffffffff163373ffffffffffffffffffffffffffffffffffffffff16145b151561063057600080fd5b81600160008573ffffffffffffffffffffffffffffffffffffffff1673ffffffffffffffffffffffffffffffffffffffff16815260200190815260200160002060006101000a81548173ffffffffffffffffffffffffffffffffffffffff021916908373ffffffffffffffffffffffffffffffffffffffff1602179055508173ffffffffffffffffffffffffffffffffffffffff168373ffffffffffffffffffffffffffffffffffffffff167f605c2dbf762e5f7d60a546d42e7205dcb1b011ebc62a61736a57c9089d3a435060405160405180910390a3505050565b60016020528060005260406000206000915054906101000a900473ffffffffffffffffffffffffffffffffffffffff16815600a165627a7a72305820be2d3e936cbd26f2290bed4db6211e890be1113eeb21b96adf43eeeeb029e4c00029",
  "source": "pragma solidity ^0.4.18;\n\ncontract InterfaceImplementationRegistry {\n\n    mapping (address => mapping(bytes32 => address)) interfaces;\n    mapping (address => address) public managers;\n\n    modifier canManage(address addr) {\n        require(msg.sender == addr || msg.sender == managers[addr]);\n        _;\n    }\n\n    function interfaceHash(string interfaceName) public pure returns(bytes32) {\n        return keccak256(interfaceName);\n    }\n\n\n    /// @notice Query if an address implements an interface and thru which contract\n    /// @param addr Address that is being queried for the implementation of an interface\n    /// @param iHash SHA3 of the name of the interface as a string\n    ///  Example `web3.utils.sha3('Ierc777`')`\n    /// @return The address of the contract that implements a speficic interface\n    ///  or 0x0 if `addr` does not implement this interface\n    function getInterfaceImplementer(address addr, bytes32 iHash) public constant returns (address) {\n        return interfaces[addr][iHash];\n    }\n\n    /// @notice Sets the contract that will handle a specific interface; only\n    ///  the address itself or a `manager` defined for that address can set it\n    /// @param addr Address that you want to define the interface for\n    /// @param iHash SHA3 of the name of the interface as a string\n    ///  For example `web3.utils.sha3('Ierc777')` for the Ierc777\n    function setInterfaceImplementer(address addr, bytes32 iHash, address implementer) public canManage(addr)  {\n        interfaces[addr][iHash] = implementer;\n        InterfaceImplementerSet(addr, iHash, implementer);\n    }\n\n    /// @notice Sets an external `manager` that will be able to call `setInterfaceImplementer()`\n    ///  on behalf of the address.\n    /// @param addr Address that you are defining the manager for.\n    /// @param newManager The address of the manager for the `addr` that will replace\n    ///  the old one.  Set to 0x0 if you want to remove the manager.\n    function changeManager(address addr, address newManager) public canManage(addr) {\n        managers[addr] = newManager;\n        ManagerChanged(addr, newManager);\n    }\n\n    event InterfaceImplementerSet(address indexed addr, bytes32 indexed interfaceHash, address indexed implementer);\n    event ManagerChanged(address indexed addr, address indexed newManager);\n}\n",
  "sourcePath": "C:\\Users\\4u\\axgro\\axgro1\\axgro-prototype-walter\\contracts\\InterfaceImplementationRegistry.sol",
  "compiler": {
    "name": "solc",
    "version": "0.4.18+commit.9cf6e910.Emscripten.clang"
  },
  "schemaVersion": "1.0.1",
  "updatedAt": "2018-04-02T21:21:54.662Z"
}